DEMFXCITY     XEMPLOYEE DC@DEMOLIB                 0001000010SLCity must be entered          NECity must be entered                                                                             *LIBL     E000000233YU 
DEMFXDEPTMENT XEMPLOYEE DC@DEMOLIB                 0001000010CFDepartment in xDepartments    NE                                                                                DCU0003DC@M01    *LIBL     E000000234UU 
DEMFXEMPLOYID XEMPLOYEE DC@DEMOLIB                 0001000010RVEmployee Id must be between 1 NEEmployee Id must be in the range 1-999999                                                        *LIBL     E000000235YU 
DEMFXGENDER   XEMPLOYEE DC@DEMOLIB                 0001000010LVMale, Female or Nodisclose    NEGender must be Male, Female or NoDisclose                                                        *LIBL     E000000236YU 
DEMFXGIVENAME XEMPLOYEE DC@DEMOLIB                 0001000010SLGiven Name(s) must be entered NEGiven Name(s) must be entered                                                                    *LIBL     E000000237YU 
DEMFXPOSTCODE XEMPLOYEE DC@DEMOLIB                 0001000010RVMust be in range 1000-99999   NEPostal Code must be in the range 1000-99999                                                      *LIBL     E000000238YU 
DEMFXSTARTDTE XEMPLOYEE DC@DEMOLIB                 0001000010SLStartDate today or later      ENStart Date must be today or later                                                                *LIBL     E000000239Y  
DEMFXSTREET   XEMPLOYEE DC@DEMOLIB                 0001000010SLStreet must be entered        NEStreet must be entered                                                                           *LIBL     E000000240YU 
DEMFXSURNAME  XEMPLOYEE DC@DEMOLIB                 0001000010SLSurname must be entered       NESurname must be entered                                                                          *LIBL     E000000241YU 
DEMFXTERMDATE XEMPLOYEE DC@DEMOLIB                 0001000010SLCheck value before validate   AN                                                                                DCU0004DC@M01    *LIBL     E000000242YY 
DEMFXTERMDATE XEMPLOYEE DC@DEMOLIB                 0001000020SLTermination date after Start  NETermination Date must be after the Start Date                                                    *LIBL     E000000243YY 
