DEMXEMPLOYEE DC@DEMOLIBFFD0000000001XEMPLOYID 00001AC        1000000    
DEMXEMPLOYEE DC@DEMOLIBFFD0000000002XEMPTITLE 000008C        4000000    
DEMXEMPLOYEE DC@DEMOLIBFFD0000000003XSURNAME  000008C        4000000    
DEMXEMPLOYEE DC@DEMOLIBFFD0000000004XGIVENAME 00000AC        2000000    
DEMXEMPLOYEE DC@DEMOLIBFFD0000000005XEMPDOB   00000EC        1000000    
DEMXEMPLOYEE DC@DEMOLIBFFD0000000006XGENDER   00000AC        1000000    
DEMXEMPLOYEE DC@DEMOLIBFFD0000000007XSTREET   000008C        4000000    
DEMXEMPLOYEE DC@DEMOLIBFFD0000000008XCITY     000008C        4000000    
DEMXEMPLOYEE DC@DEMOLIBFFD0000000009XSTATE    000008C        4000000    
DEMXEMPLOYEE DC@DEMOLIBFFD0000000010XPOSTCODE 00000AC        1000000    
DEMXEMPLOYEE DC@DEMOLIBFFD0000000011XCOUNTRY  000008C        4000000    
DEMXEMPLOYEE DC@DEMOLIBFFD0000000012XPHONEHME 00000AC        1500000    
DEMXEMPLOYEE DC@DEMOLIBFFD0000000013XPHONEBUS 00000AC        1500000    
DEMXEMPLOYEE DC@DEMOLIBFFD0000000014XPHONEMOB 00000AC        1500000    
DEMXEMPLOYEE DC@DEMOLIBFFD0000000015XSALARY   00000PC        1500002    
DEMXEMPLOYEE DC@DEMOLIBFFD0000000016XSTARTDTE 00000EC        1000000    
DEMXEMPLOYEE DC@DEMOLIBFFD0000000017XTERMDATE 00000EC        1000000    
DEMXEMPLOYEE DC@DEMOLIBFFD0000000018XDEPTMENT 00000AC         400000    
DEMXEMPLOYEE DC@DEMOLIBVFD0000000019XMONTHSAL 00000PC        1500002    
DEMXEMPLOYEE DC@DEMOLIBVFD0000000020XEMPAGE   00000IC         400000    
DEMXEMPLOYEE DC@DEMOLIBVFD0000000021XEMPDEPT  00000AC        2000000    
